:100000000A128A11EC2FFF1B0D2883137F18831708
:100010000008840A0319FF0A080000308A00040857
:10002000840A82070034463461346E343A34203412
:100030004F344634463420342034203420342034A5
:100040002034203420340034463461346E343A3461
:1000500020344C344F34573420342034203420346E
:1000600020342034203420340034463461346E345B
:100070003A34203448344934473448342034203426
:100080002034203420342034203400344634613489
:100090006E343A3420344D34453444344934553484
:1000A0004D3420342034203420342034003454346F
:1000B00065346D3470343A342034253475342E343C
:1000C0002534753420344334203420342034003433
:10055C00080064008001840A0406031900340406B0
:10056C00B02A8316031305148E309F00813083123A
:10057C0003139F0008008316031307110C3083121A
:10058C00031397007C3083160313920004308312FC
:10059C000313920008002130F200F20BD32A8312CD
:1005AC0003131F151F19DB2ADC2AD82A1E08F10099
:1005BC00831603131E08F0000800F2007208831261
:1005CC00031388000610861006150D30F100FB3061
:1005DC00F000F00BEF2AF10BEF2AF42A831203132D
:1005EC0006110800F2007208831203138800061427
:1005FC00861006150D30F100FB30F000F00B042BCB
:10060C00F10B042B092B8312031306110800F400C1
:10061C007403031D122B132B1B2B7308803E0A1221
:10062C008A11E3220A128A11282B02307406031D48
:10063C00202B212B282B7308C03E0A128A11E3228F
:10064C000A128A1108007108F3007008F2000310F6
:10065C00F30CF20C0310F30CF20C7208831203135C
:10066C00950070080339F20004300310F20DFF3EC0
:10067C00031D3B2B1708CF3972049700080032304A
:10068C0083120313B7003008B8000030B900BA0168
:10069C00BB01C101C2013830AC000030AD003108E3
:1006AC00AE003730AF000A128A1168230A128A1181
:1006BC00831203133A083007B600360884008313FC
:1006CC0080010800831203132E08FD007C2B83127B
:1006DC0003132C08A0002D08A1007D30A2002F08C8
:1006EC00A3000A128A11EF250A128A117D088400D0
:1006FC000A128A110D200A128A11003A031D872B47
:10070C00882B6D2B83120313AC01AD010800A22BB7
:10071C007408FF00730884000A128A1103200A125D
:10072C008A110A128A11F8220A128A110130F3076F
:10073C000318F40A0030F407740883120313FF0043
:10074C00730884000A128A1103200A128A11003AD3
:10075C00031DB12BB22B8E2B0800F830831603131C
:10076C00860588016230F4006530F300F30BBC2B76
:10077C00F40BBC2BC12B38300A128A11E3220A125B
:10078C008A110C300A128A11E3220A128A110130E2
:10079C000A128A11E3220A128A110D30F400FB307E
:1007AC00F300F30BD72BF40BD72BDC2B08007008C2
:1007BC0071040319E22BE32B102C0130F400EF2B06
:1007CC0001300310F00DF10DFF3E031DE72B01303E
:1007DC00F407F11FF22BF32BE62B71087302031DA8
:1007EC00F92B70087202031CFC2BFD2B032C7008D8
:1007FC00F2027108031CF303F30201300310F10C35
:10080C00F00CFF3E031D042C0130F402031D0F2CD1
:10081C00102CF32B7308F1007208F0000800F4019F
:10082C00F5017008710403191C2C1D2C522C01307D
:10083C00F600292C01300310F00DF10DFF3E031DC5
:10084C00212C0130F607F11F2C2C2D2C202C0130E3
:10085C000310F40DF50DFF3E031D2E2C71087302D1
:10086C00031D3A2C70087202031C3D2C3E2C452CA7
:10087C007008F2027108031CF303F30274140130C4
:10088C000310F10CF00CFF3E031D462C0130F60258
:10089C00031D512C522C2D2C7508F1007408F000FE
:1008AC0008000030FC000030FB000030FA00003083
:1008BC00F900701C622C632C7A2C7408F9077508EB
:1008CC0003110318013E03196C2CFA077608031167
:1008DC000318013E0319732CFB0777080311031847
:1008EC00013E03197A2CFC070130F8000310F40DBB
:1008FC00F50DF60DF70DF80B7C2C01300310F30CF5
:10090C00F20CF10CF00CFF3E031D842C73087204E6
:10091C0071047004031D932C942C5F2C7C08F30041
:10092C007B08F2007A08F1007908F00008008312C5
:10093C00031323082204210420040319A62CA72C3A
:10094C00E82C0130A900B52C0130A8000310A00D33
:10095C00A10DA20DA30DA80BAC2C0130A907A31F50
:10096C00B82CB92CAA2C23082702031DC72C22084B
:10097C002602031DC72C21082502031DC72C2008A5
:10098C002402031CCA2CCB2CD92C2008A40221082D
:10099C00031C210FA5022208031C220FA602230808
:1009AC00031C230FA70201300310A30CA20CA10CF3
:1009BC00A00CFF3E031DDA2C0130A902031DE72C0D
:1009CC00E82CB92C2708A3002608A2002508A100B2
:1009DC002408A00008000030FC000030FB000030B0
:1009EC00FA000030F90073087204710470040319E2
:1009FC00002D012D4C2D0130FD000F2D0130F80084
:100A0C000310F00DF10DF20DF30DF80B062D013066
:100A1C00FD07F31F122D132D042D0130F8000310C8
:100A2C00F90DFA0DFB0DFC0DF80B152D7308770263
:100A3C00031D2A2D72087602031D2A2D71087502DA
:100A4C00031D2A2D70087402031C2D2D2E2D3D2DF7
:100A5C007008F4027108031C710FF5027208031C74
:100A6C00720FF6027308031C730FF702791401302E
:100A7C000310F30CF20CF10CF00CFF3E031D3E2D99
:100A8C000130FD02031D4B2D4C2D132D7C08F30062
:100A9C007B08F2007A08F1007908F000080072086F
:100AAC00730403195A2D5B2D612D72087304031DF9
:100ABC00602D612D682D70080A128A11AE220A125F
:100ACC008A11EE2D7208093EF40073080318013EDA
:100ADC00003EF500740884008317751C831300080E
:100AEC00F600840A0008F7007608770403197F2DB6
:100AFC00802DB22D7208093EF40073080318013ED4
:100B0C00003EF500740884008317751C83130008DD
:100B1C00F600840A0008F7007208023EF800730819
:100B2C000318013E003EF900780884008317791CF5
:100B3C0083130008FA00840A0008FB007B08803A43
:100B4C00FC007708803A7C02031DAE2D76087A02F1
:100B5C000318B12DB22DEE2D720884008317731C6F
:100B6C0083130008F400840A0008F5007208023EA2
:100B7C00F60073080318013E003EF7007608840067
:100B8C008317771C831300087407F9007508F800A5
:100B9C000318F80A801FD32DF8037808FA00790897
:100BAC00840083177A1C8313700880007208023E3D
:100BBC00F40073080318013E003EF500740884002D
:100BCC008317751C831301308007840A0318800A6D
:100BDC0008008312031322088400000884000A1200
:100BEC008A110D200A128A11253A031DFE2DFF2DA4
:100BFC00992E2208840001308007E001E1010030C9
:100C0C00E400FF30E200FF30E3002208840000081B
:100C1C00AA002A0884000A128A110D200A128A11CD
:100C2C00753A031D1A2E1B2E922E23088400831353
:100C3C000008A40002308007240884000008A600E5
:100C4C00840A0008A700220884002A08013E8000BC
:100C5C00872E2030AB000130AB022B08A03E840065
:100C6C000A30F0000030F1002708F3002608F200EB
:100C7C000A128A11DD230A128A117008303E83137E
:100C8C0080000A30F0000030F100831203132708B3
:100C9C00F3002608F2000A128A1115240A128A118E
:100CAC00710883120313A7007008A60026082704F6
:100CBC000319612E622E802E2B08031D662E672EC3
:100CCC00312E802E2B08A03E840083130008A40034
:100CDC00A5012408F0002508F1002008F2002108E5
:100CEC00F3000A128A1155250A128A110130831257
:100CFC000313AB0720302B06031D852E862E682E82
:100D0C00B22E2A0884000A128A110D200A128A11A6
:100D1C00753A03192F2E922E831203132208840086
:100D2C0001308007B22E22088400000884000A12C9
:100D3C008A110D200A128A11A400A5012408F000C2
:100D4C002508F1002008F2002108F3000A128A118C
:100D5C0055250A128A11922E08000A128A11B722FE
:100D6C000A128A110A128A11B3230A128A110A1260
:100D7C008A11C1220A128A110A128A11D1220A126C
:100D8C008A11710883120313D7007008D600560815
:100D9C00F0005708F100F201F3010030F7000030C9
:100DAC00F6000130F500E830F4000A128A115724DD
:100DBC000A128A11730883120313DD007208DC0017
:100DCC007108DB007008DA000030F3000030F2002C
:100DDC000330F100E830F0005D08F7005C08F60025
:100DEC005B08F5005A08F4000A128A11F1240A1261
:100DFC008A11710883120313DF007008DE000030C3
:100E0C00A3000030A2000030A1000A30A000003086
:100E1C00F3000030F2000030F1006430F0005D08A7
:100E2C00F7005C08F6005B08F5005A08F4000A129B
:100E3C008A11F1240A128A11730883120313A70072
:100E4C007208A6007108A5007008A4000A128A1185
:100E5C009D240A128A11831203132108D900200839
:100E6C00D800F30101300A128A110D230A128A11DB
:100E7C00463083120313B0004530B1005F08B30055
:100E8C005E08B2005908B5005808B4000A128A115D
:100E9C0045230A128A114630F3000030F4000A127E
:100EAC008A118D230A128A11F30102300A128A1157
:100EBC000D230A128A110030831203135F022330B0
:100ECC0003195E0203186B2F6C2F7E2F0030F0007D
:100EDC00F1000A128A1129230A128A110130F30037
:100EEC008030F4000A128A118D230A128A11DA2F2B
:100EFC0000305F02233003195E02031C862F872FFC
:100F0C00A32F00305F02283003195E0203188F2FC5
:100F1C00902FA32FC830F0000030F1000A128A1174
:100F2C0029230A128A111230F3008030F4000A12BD
:100F3C008A118D230A128A11DA2F00305F022830B1
:100F4C0003195E02031CAB2FAC2FC82F00305F02BD
:100F5C002D3003195E020318B42FB52FC82F5E3045
:100F6C00F0000130F1000A128A1129230A128A11A9
:100F7C003430F3008030F4000A128A118D230A12E7
:100F8C008A11DA2FF430F0000130F1000A128A11C4
:100F9C0029230A128A112330F3008030F4000A123C
:100FAC008A118D230A128A11083083120313C5008B
:100FBC009D30C4000530C300C30BE22FC40BE22FDD
:100FCC00C50BE22FC22E0A128A11002883120313BA
:100FDC00E001E101E201E301E4018313A0308400AC
:100FEC00C0300A128A11AF220A128A1183010A1226
:040FFC008A11B32E75
:02400E00723FFF
:00000001FF
